:020000001628C0
:0E0006008312031321088A00200882000800DC
:1000140003208A110A128000840AA00A0319A10A83
:08002400F003031D0A28080087
:10002C00FF3083120313A20083168601F201F30141
:10003C0080307306F00080307002031D27280530D5
:10004C00720203185028FF308312A200FF30860082
:10005C004130FC00EE30FD00FD0B3228FC0B322849
:10006C0000002208F000F00CF0137008A2007008D9
:10007C0086004130FC00EE30FD00FD0B4328FC0BEC
:10008C00432800002208003A031D3728F20A0319FE
:06009C00F30A1E285028A3
:04400E00F22F000786
:00000001FF
