:020000001628C0
:0E0006008312031321088A00200882000800DC
:1000140003208A110A128000840AA00A0319A10A83
:08002400F003031D0A28080087
:10002C0083160313860187010130F20072088312D4
:10003C0086004130FC00EE30FD00FD0B2328FC0B4C
:10004C002328000086017208F000F00D7010700873
:10005C00F200700887004130FC00EE30FD00FD0B13
:10006C003528FC0B3528000087017208F100F10DD2
:10007C0071107108F2007108003A031D1C281A282F
:02008C00462804
:04400E00F22F000786
:00000001FF
