:020000002D28A9
:10000800FF00030E8301A4000A08A5008A010B1D46
:100018001328A00A0319A10A0B11833081002508AF
:0C0028008A00240E8300FF0E7F0E0900EA
:0E0034008312031323088A00220882000800AA
:100042001A208A110A128000840AA20A0319A30A3A
:08005200F003031D2128080042
:10005A0083120313A001A1011130A6001B30A700CF
:10006A001530A8001130A9008330831681000317C8
:10007A008801890183128713881383160313850164
:10008A0086018701880120308B00831226088500AB
:10009A00270886002808870029088800A001A101EE
:1000AA008330810000302102031D5D2819302002AF
:1000BA000318602857282608F200F20D721007303C
:1000CA00F1002608F000710803196F28F00CF013EC
:1000DA00FF3E692870087204A6002708F200F20D94
:1000EA0072100730F1002708F000710803198128FF
:1000FA00F00CF013FF3E7B2870087204A700280852
:10010A00F200F20D72100730F1002808F0007108B1
:10011A0003199328F00CF013FF3E8D28700872041F
:10012A00A8002908F200F20D72100730F100290820
:10013A00F00071080319A528F00CF013FF3E9F2860
:0A014A0070087204A9004A28A928D1
:04400E00F22F000786
:00000001FF
