:02000000D52801
:0E000600213083120313FD00FD0B07280800B4
:100014000F3083120313FC004730FD00FD0B102842
:0A002400FC0B10280000000008008B
:06002E00000000000800C4
:1000340083120313C01B2028861121288615401B18
:100044002528061126280615C01A2A2886102B28CA
:100054008614401A2F280610302806143C18342819
:10006400061635280612861617208612C0193C2853
:1000740086113D2886154019412806114228061587
:10008400C018462886104728861440184B280610A6
:100094004C2806143C1850280616512806128616B9
:1000A400172086123C1C58280A20592803200800CF
:0E00B400831203133B088A003A0882000800FA
:1000C200831203133C103F08C0001A203C1408009E
:1000D2008316031386120612061086100611861165
:1000E20083128612061286110611861006100A2045
:1000F2000A200A20861406148616172086120A2061
:100102008616172086120A208616172086120A20C3
:1001120006108616172086120A20861617208612C7
:10012200861086158616172086120A208611061456
:1001320086161720861206108616172086120A20A7
:1001420086161720861206148616172086120A2093
:1001520006108616172086128615061586140614B2
:0C0162008616172086120A203C140800A4
:10016E0083120313BE013E083D07840000080319E5
:10017E00C8283E083D0784000008BF006120BE0A63
:04018E00BA28080083
:100192005A208A110A128000840ABA0A0319BB0A79
:0801A200F003031DC928080049
:1001AA007A3083120313A0006430A1007230A200D7
:1001BA006130A3007630A4006F30A5002030A6007D
:1001CA007330A7007630A8006530A9007430AA0001
:1001DA007530AB00AC017A30AD006430AE007230DD
:1001EA00AF006130B0007630B1006F30B20020301D
:1001FA00B3007330B4007630B5006530B6007430A1
:10020A00B7007530B800B901831603178801890150
:10021A0069200130C0001A201430C0001A20203092
:10022A00BD00B720C030C0001A201430C0001A2008
:0E023A001430C0001A202D30BD00B72023293B
:04400E00F22F000786
:00000001FF
