:02000000E029F5
:0E000600213083120313FD00FD0B07280800B4
:06001400000000000800DE
:10001A000F3083120313FC004730FD00FD0B132839
:0A002A00FC0B132800000000080082
:1000340083120313CB1B20288611212886154B1B02
:100044002528061126280615CB1A2A2886102B28BF
:1000540086144B1A2F280610302806142218342828
:1000640006163528061286160A208612CB193C2855
:1000740086113D2886154B1941280611422806157C
:10008400CB1846288610472886144B184B28061090
:100094004C280614221850280616512806128616D3
:1000A4000A208612221C58280D20592803200800F3
:1000B40083120313F801F9011030FC00710DF80DDF
:1000C400F90D7408F8027508031C750FF90203187A
:1000D40072287408F80775080318750FF9070310D8
:0A00E400F00DF10DFC0B6028080080
:1000EE0083120313C601C801C9011030CA000430BF
:1000FE0049020318A328F03088004A0983168800A5
:10010E000A200A200F3083120805F0007008C7007D
:10011E00700803199D284808C600470803199B2834
:10012E00C70CC713C60A94280430C900CA0D4A105A
:0E013E000430C807C90A7E284608F0000800F1
:10014C0083120313C901053049020318B428490866
:10015C004807840020308000C90AA92849084807AC
:10016C0084008001C90349084807CA000A30F4001A
:10017C00F5014608F0004708F1005A207808F00015
:10018C007908F1003030F0074A08840070088000CC
:10019C000A30F400F5014608F0004708F1005A2037
:1001AC007008C6007108C70000307106031DE028F6
:1001BC0000307006031DE328E528C903B9280800A0
:0E01CC008312031321088A0020088200080015
:1001DA00063083120313FD00FD0BF128000008000E
:1001EA008312031322104608CB001A202214080097
:1001FA0083120313BE013E083D0784000008031959
:10020A000E293E083D0784000008C600F520BE0AF4
:04021A0000290800AF
:10021E0083120313C201C3013D08C4003E08C5008A
:10022E0080303E06F00080307002031D2029003021
:10023E003D0203182E290130C2000030C3003D08D4
:10024E00003CC4003E08031C013EC501C502440823
:10025E00C6004508C7003F08C800A6200630C000EB
:10026E000030C1004108003C031D3F294008003CFE
:10027E0003185A2940083F07F20001304002F000EF
:10028E000030031C013E4102F10070083F0784005C
:10029E000008F00072088400700880000130C0026F
:1002AE00031CC10339293F08840020308000420816
:1002BE00430403197829C001C10140083F07840097
:1002CE000008203A031D6F29C00A0319C10A6429C8
:1002DE000130C002031CC10340083F0784002D30CB
:0402EE008000080084
:1002F200E6208A110A128000840AA00A0319A10AC0
:08030200F003031D7929080036
:10030A00831603138612061206108610061186112A
:10031A0083128612061286110611861006100D2007
:10032A000D200D208614061486160A2086120D202A
:10033A0086160A2086120D2086160A2086120D209D
:10034A00061086160A2086120D2086160A208612A4
:10035A008610861586160A2086120D208611061426
:10036A0086160A208612061086160A2086120D2084
:10037A0086160A208612061486160A2086120D2070
:10038A00061086160A208612861506158614061485
:0C039A0086160A2086120D20221408008E
:1003A60077207008BD000F300805F0000319DD291D
:0A03B600ED20D6293D08F0000800F4
:1003C000013083120313B7000030B800B901BA013D
:1003D000BB01BC0183160317880189018521013007
:1003E000CB001A20B601D3217008B6007008003A7D
:1003F0000319F3292B2A3130B6006B2A3230B600AC
:100400006B2A3330B6006B2A2B30B6006B2A34309F
:10041000B6006B2A3530B6006B2A3630B6006B2A30
:100420004330B6006B2A3730B6006B2A3830B6003E
:100430006B2A3930B6006B2A3D30B6006B2A423049
:10044000B6006B2A3030B6006B2A4B30B6006B2AF0
:100450005030B6006B2A3608013A0319FB293608DA
:10046000023A0319FE293608033A0319012A36080D
:10047000043A0319042A3608053A0319072A3608EC
:10048000063A03190A2A3608073A03190D2A3608CC
:10049000083A0319102A3608093A0319132A3608AC
:1004A0000A3A0319162A36080B3A0319192A36088C
:1004B0000C3A03191C2A36080D3A03191F2A36086C
:1004C0000E3A0319222A36080F3A0319252A36084C
:1004D000103A0319282A30303602031C852A3608C0
:1004E000393C031C852A3708380403197E2A30302A
:1004F0003602B900BA01031CBA03842A303036022E
:10050000BB00BC01031CBC03CD2A36082B3A031DDB
:100510008C2AB701B801CD2A36083D3A031D992A25
:100520003B083907B4003A080318013E3C07B50000
:10053000CD2A3608423A031DA72A37083804031982
:10054000A42AB901BA01A62ABB01BC01CD2A3608EA
:10055000433A031DB92AB401B501BB01BC01B9017D
:10056000BA010130B7000030B8000130CB001A20CA
:10057000CD2A3608503A031DC82A3408BD00350874
:10058000BE002330BF000F212330BD00FD20CD2A47
:1005900036084B3A031DCD2AD12A3608C600F5206D
:0405A000F229D12A41
:04400E00F22F000786
:00000001FF
